:020000040800F2
:1000000020B80020E9910108D99901088F8E0008D5
:10001000DD990108E1990108E59901080000000057
:10002000000000000000000000000000E999010845
:10003000ED99010800000000DD8D0008DD370008A3
:10004000F1990108F5990108F9990108FD9901084C
:10005000019A0108059A0108E1F50008FBF500087E
:1000600015F600082FF6000849F60008099A01085D
:100070000D9A0108119A0108159A0108199A0108A8
:100080001D9A0108219A0108259A0108299A010858
:100090002D9A0108319A0108359A010863F6000883
:1000A000399A01083D9A0108419A0108459A0108C8
:1000B000499A01084D9A01081FFD0008519A01084C
:1000C000559A0108599A01085D9A0108619A010838
:1000D000659A0108699A0108875A00085F120108A9
:1000E0009BF600086D9A0108719A0108759A01083B
:1000F000799A01087D9A0108819A0108859A010878
:10010000899A01088D9A0108919A0108959A010827
:10011000E3FC0008999A01089D9A0108A19A010838
:10012000A59A0108A99A0108AD9A0108B19A010897
:10013000B59A0108B99A0108BD9A0108C19A010847
:10014000C59A0108C99A0108CD9A0108D19A0108F7
:10015000D59A0108D99A0108DD9A0108E19A0108A7
:10016000E59A0108E99A0108ED9A0108F19A010857
:10017000F59A0108F99A0108FD9A0108019B010806
:10018000059B0108099B010800F5E0700268914297
:1001900003D343689A18914202D380680028F5D1AE
:1001A0007047DFF86007016891B9DFF85C274FF40A
:1001B000803181604FF4805141604FF0FF31C16068
:1001C000016104214161C2F8BC11DFF840170160F0
:1001D0000120704701F1080313F0070305D001F176
:1001E0000803C3F1080303F007035918D21A816109
:1001F000C26042F001034B60511828234B60DFF8C6
:1002000004170969C16170472DE9F04F064601F1F5
:10021000080083B010F0070008BF884607D001F13E
:100220000800C0F1080000F0070000EB010802F12F
:10023000080010F0070006D002F10800C0F1080025
:1002400000F0070082181546A5EB0800A0EB030993
:1002500003EB080B43F00300C8F80400AB4528BFCC
:1002600001F02AFE2879C00758BF01F025FEB9F138
:10027000100F38BF01F020FEB069854209D1F06847
:100280004844F060C6F818B040F00100CBF8040014
:100290006DE1706985420BD1B0684844B060C6F822
:1002A00014B040F00101CBF8041040F80B005EE1FF
:1002B000686800F00301012940F0AD80C008C0006B
:1002C0000190C00820283AD2D5F808A0EF68009025
:1002D000BD4208BF01F0F0FD554508BF01F0ECFD3F
:1002E00068680099C008C000B0EBC10F18BF01F0EA
:1002F000E3FD009806EBC00000F128018A4507D015
:1003000031698A45C0F08280DAF80C10A9427DD1AB
:10031000574506D1009A30680121914088433060EA
:1003200076E02830874205D0306987426ED3B868BE
:10033000A8426BD1CAF80C70C7F808A068E0EF6853
:10034000D5F818A0AF420CD0A8683169884223D3F1
:10035000C168A94204BFB968A9421DD1C760B8608D
:100360001CE005F11400076837B905F110000768B3
:10037000A7B101E00846076807F114010A68002ADE
:1003800002BF07F110010A68002AF3D131698842DF
:1003900002D30021016001E001F08EFDBAF1000FEF
:1003A00036D0E86906EB800000F5987001688D4250
:1003B00008D10760A7B9EA697068012191408843B4
:1003C000706025E03069824508D3DAF81000A84251
:1003D00014BFCAF81470CAF8107001E001F06CFD87
:1003E000B7B13069874211D3C7F818A0296929B17C
:1003F000814226BF39618F6101F05EFD686938B1C5
:100400003169884202D37861876101E001F054FDCF
:1004100001984519814468684008400068604FEAC7
:10042000D90549F00100CBF8040049F80B90202DC4
:1004300023D206EBC50000F12807BA46B9F1100F28
:1004400038BF01F039FD306820FA05F1C90704D43E
:100450000121A9400843306006E0B868316988424C
:100460002CBF824601F028FDC7F808B0CAF80CB0CE
:10047000CBF808A0CBF80C7079E05FEA192108BF2F
:10048000002023D0B1F5803F28BF1F201ED2A1F548
:100490008070000C00F008008140A1F58052120C21
:1004A00002F004029140A1F580431B0CC0F10E0044
:1004B00003F00203801AC01A994000EBD130C11D2D
:1004C00029FA01F101F0010101EB4000CBF81C0019
:1004D0000022CBF81420CBF8102006EB80017268C4
:1004E00022FA00F301F59871DB0707D4012303FA20
:1004F00000F010437060C1F800B01DE01F280968CB
:100500000EBF00204008C0F1190009FA00F000E019
:1005100011464A68D208D2004A4514D0C20F01EBF6
:10052000820202F1100340001A68002AF0D13069FB
:1005300083421AD3C3F800B0CBF81810CBF80CB034
:10054000CBF808B013E032698868914228BF904226
:100550000BD3C0F80CB0C1F808B0CBF80800CBF84A
:100560000C100020CBF8180001E001F0A5FC08F108
:10057000080001F049B82DE9FA4D0546DFF884037B
:10058000006884B008B9FFF70CFEDFF8780304991F
:10059000806841182F31401E21EA000004998142F1
:1005A00080F0AB8105F5D876B16841B1D5F8B021BE
:1005B0008018824280F0A1818142C0F09E8101F0CA
:1005C000A1FC00281EBF0446D0F8008014F1010FE2
:1005D00000F09381D5F8B0014044C5F8B0017168CE
:1005E000814238BF01467160A86980BB286908B1A3
:1005F000844200D22C613461C6F814800020F0617E
:1006000005F12801BF48006868624FF0FF3028629A
:100610000020C960896001F10802801CD26010319D
:1006200092602028F5D3B848854203D1A8F128026A
:10063000214629E055F8040CC00805EBC000A0F1E4
:10064000080108EB0400401AA0F128021CE005F59F
:10065000E071084600E08068D0B1026843689A18EB
:100660009442F8D1027B120712D4AA6903689A4215
:100670000ED347683B449A420AD208EB0701416017
:10068000E868A96908EB00022846FFF7A3FD1EE110
:100690002869844238BF2C61084608EB040100E059
:1006A000806880B102688A42FAD1017B09070AD4C6
:1006B00004604168414441602146049B284606B0DD
:1006C000BDE8F04DA0E5AF6939462846FFF75CFD6F
:1006D00001684068401802902F3800F1080111F0BD
:1006E000070105D000F10801C1F1080101F007017F
:1006F000081807F11001884234BF00970090009855
:100700000830019004F10801009800F1180A4FF038
:10071000000BA8F1280011F0070105D004F1080131
:10072000C1F1080101F007010A19401AAA61E86045
:1007300040F0010151608018282141607148006932
:10074000E861019810F0070018BF01F0B5FB0099AF
:100750001B20486005F5E071B1E80C500198A0E855
:100760000C503461C6F81480C6F81CB00198B06112
:10077000029800E08A460722CAF804200AF1040120
:100780000A1D0BF1010B8242F4D3BBF1020FB8BF7B
:1007900001F092FB0098B84200F09980C01BC1198B
:1007A000C4084A68520852004A6040F0010179606A
:1007B000C051202C20D205EBC40101F12806B0461F
:1007C000102838BF01F078FB286820FA04F1C90727
:1007D00004D40121A1400843286006E0B0682969DB
:1007E00088422CBF804601F067FBB760C8F80C70E8
:1007F000C7F80880FE606AE0010A08BF002223D023
:10080000B1F5803F28BF1F221ED2A1F58072120CC5
:1008100002F008029140A1F580531B0C03F0040381
:100820009940A1F58044240CC2F10E0204F00204A8
:10083000D21A121BA14002EBD131CA1D20FA02F2DA
:1008400002F0010202EB4102FA6100237B613B618D
:1008500005EB82016B6823FA02F401F59871E40755
:1008600005D401209040184368600F601CE01F2AE7
:1008700009680EBF00225208C2F1190200FA02F202
:1008800000E019464B68DB08DB00834210D0D30F31
:1008900001EB830303F1100452002368002BF0D115
:1008A0002869844211D32760B961FF60BF600EE000
:1008B0002A698868914228BF904206D3C7608F603A
:1008C000B860F9600020B86101E001F0F5FAE8686D
:1008D0000499814211D2401AE860A969049A521819
:1008E000AA6140F001005060049840F003004860A5
:1008F00006B001F10800BDE8F08D002006B0BDE8AB
:10090000F08D0000DC930020A48200206859883C10
:100910002DE9F0470D4604466868904608EB050946
:10092000C10737D4296810F0030F00F03E82206918
:100930006D1A88448542C0F034826269954200F0A5
:10094000BB80CE08202E54D2D5F80CA0AF685545F8
:1009500008BF01F0B1FABD4208BF01F0ADFA686806
:10096000C008C000B0EBC60F18BF01F0A5FA04EB39
:10097000C60000F128018F4205D021698F4235D38E
:10098000F968A94232D1BA4521D120680121B1408C
:100990008843206020698145C0F00382D9F80410A3
:1009A0008A0700F16081A269914540F09B80E06870
:1009B0004044E060A56140F00100686060698542E4
:1009C00040F0F38100206061A060BDE8F08728302E
:1009D000824506D02069824508D3DAF80800A8428B
:1009E00004D1C7F80CA0CAF80870D3E701F064FA84
:1009F000D0E7EF68AE69AF420BD0A968814222D33D
:100A0000C868A84204BFB868A8421CD1CF60B960CA
:100A10001BE005F114010F6837B905F110010F68EB
:100A20009FB101E011460F6807F114021368002B13
:100A300002BF07F110021368002BF3D1814202D3E9
:100A40000020086001E001F037FA002EA2D0E8692A
:100A500004EB800000F5987001688D4209D10760B1
:100A6000380011D1EA6960680121914088436060D3
:100A700090E72069864205D33069A84214BF7761A8
:100A8000376101E001F018FA002F83D02069874216
:100A9000ACD3BE61296929B1814226BF39618F611A
:100AA00001F00AFA686900283FF474AF21698842AE
:100AB0009CD3786187616DE799F8040000F003002A
:100AC00003287FF467AFC4F80880D9F80400400811
:100AD0004000C9F8040048F00100686048F805804B
:100AE000BDE8F0876269914509D1A0684044A060E3
:100AF000656140F0010169604051BDE8F087C908B7
:100B0000C900CE088844202E38D2D9F80CA0D9F8D4
:100B10000870D14508BF01F0CFF9B94508BF01F011
:100B2000CBF9D9F80400C008C000B0EBC60F18BF5D
:100B300001F0C2F904EBC60000F128018F4206D093
:100B400021698F42C0F08180F96849457DD1BA455D
:100B500005D120680121B1408843206077E028302A
:100B6000824506D0206982456FD3DAF808004845EF
:100B70006BD1C7F80CA0CAF8087068E0D9F80C70FF
:100B8000D9F818604F450CD0D9F80810814222D30B
:100B9000C868484504BFB86848451CD1CF60B960F3
:100BA0001BE009F114010F6837B909F110010F6852
:100BB0009FB101E011460F6807F114021368002B82
:100BC00002BF07F110021368002BF3D1814202D358
:100BD0000020086001E001F06FF9002E37D0D9F84D
:100BE0001C0004EB800000F59870016889450AD16B
:100BF0000760380012D1D9F81C20606801219140AB
:100C00008843606023E02069864205D33069484507
:100C100014BF7761376101E001F04EF9BFB120697F
:100C2000874212D3BE61D9F8101029B1814226BF84
:100C300039618F6101F040F9D9F8140038B12169A8
:100C4000884202D37861876101E001F035F948F00C
:100C50000100686048F80580606985420CD1C4F8DD
:100C60000880BDE8F08748084000C9F8040048F053
:100C70000100686048F805804FEAD807202F23D28A
:100C800004EBC70000F128094E46B8F1100F38BF39
:100C900001F012F9206820FA07F1C90704D40121F4
:100CA000B9400843206007E0D9F80800216988426C
:100CB0002CBF064601F000F9C9F80850F560AE6097
:100CC000C5F80C90BDE8F0875FEA182008BF002146
:100CD00023D0B0F5803F28BF1F211ED2A0F5807120
:100CE000090C01F008018840A0F58052120C02F0B6
:100CF00004029040A0F580431B0CC1F10E0103F0EB
:100D00000203891AC91A984001EBD030C11D28FA94
:100D100001F101F0010101EB4001E96100226A618A
:100D20002A6104EB8100626822FA01F300F59870F1
:100D3000DB0706D4012303FA01F11143616005606A
:100D40001CE01F2900680EBF00214908C1F11901EC
:100D500008FA01F100E010464268D208D20042458C
:100D600011D0CA0F00EB820202F1100349001A6889
:100D7000002AF0D121698B4213D31D60A861ED6078
:100D8000AD60BDE8F08722698168904228BF91423A
:100D900007D3CD608560A960E8600020A861BDE848
:100DA000F087BDE8F04701F087B8BDE8F0872DE98E
:100DB000F04D044688460026C8F1000B5FEA182073
:100DC00008BF002123D0B0F5803F28BF1F211ED2CD
:100DD000A0F58071090C01F008018840A0F580524F
:100DE000120C02F004029040A0F580431B0CC1F1EC
:100DF0000E0103F00203891AC91A984001EBD030A2
:100E0000C11D28FA01F101F0010101EB400104EBE1
:100E10008100D0F8300130B31F290EBF00224A08EC
:100E2000C2F1190208FA02F2002300E052004568FC
:100E3000ED08ED00A5EB08055D4503D206465FEA27
:100E4000050B0CD045694FEAD27E00EB8E00002DD9
:100E500000691CBF85422B460028E7D118460028B0
:100E60003AD1002E3AD10120884040004142084347
:100E70006168084000F0658141420840411E080B4E
:100E800000F0100021FA00F2510901F00801CA40F7
:100E9000930803F00403DA40550805F0020508182A
:100EA000EA401818C2F3400E2844704422FA0EF1AA
:100EB000081804EB8000D0F830010DE008464168C6
:100EC000C908C900A1EB080159453CBF8B4606463D
:100ED00001690029F2D140690028F0D1002E00F00C
:100EE0003081A068A0EB0800834580F02A8120694A
:100EF0008642C0F024817068C008C00008EB0B0176
:100F000008EB0605884218BF00F0D6FFAE4280F01D
:100F10001681F768D6F818A0B7420CD0B0682169DE
:100F2000884223D3C168B14204BFB968B1421DD120
:100F3000C760B8601CE006F11400076837B906F115
:100F400010000768A7B101E00846076807F114011F
:100F50000A68002A02BF07F110010A68002AF3D1CB
:100F60002169884202D30021016001E000F0A4FF62
:100F7000BAF1000F38D0F06904EB800000F59870EA
:100F800001688E4209D10760380014D1F2696068A7
:100F9000012191408843606026E02069824508D3A2
:100FA000DAF81000B04214BFCAF81470CAF8107012
:100FB00001E000F081FFBFB12069874212D3C7F87A
:100FC00018A0306930B12169884226BF3861876135
:100FD00000F072FF706938B12169884202D37861EC
:100FE000876101E000F068FFBBF1100F0CD208EB45
:100FF0000B0040F00300706008EB0B0080194168A3
:1010000041F00101416096E048F0030070604BF050
:10101000010068604BF805B04FEADB0020281DD2C4
:1010200004EBC00101F12807216821FA00F2BB4658
:10103000D20705D4012202FA00F00843206006E03E
:10104000B868216988422CBF834600F035FFBD6037
:10105000CBF80C50C5F808B0EF606CE05FEA1B21DC
:1010600008BF002023D0B1F5803F28BF1F201ED22B
:10107000A1F58070000C00F008008140A1F58052BD
:10108000120C02F004029140A1F580431B0CC0F148
:101090000E0003F00203801AC01A994000EBD13011
:1010A000C11D2BFA01F101F0010101EB4000E861E3
:1010B00000226A612A6104EB8001626822FA00F36F
:1010C00001F59871DB0706D4012303FA00F0104301
:1010D00060600D601CE01F2809680EBF00204008FA
:1010E000C0F119000BFA00F000E011464A68D2087E
:1010F000D2005A4510D0C20F01EB820202F1100358
:1011000040001A68002AF0D12069834211D31D6083
:10111000A961ED60AD600EE022698868914228BF48
:10112000904206D3C5608D60A860E9600020A86188
:1011300001E000F0C1FE06F10800BDE8F08D00F00E
:10114000BBFE0020BDE8F08D2DE9F84F044688462F
:10115000606841420840411E080B00F01000C14089
:101160004A0902F00802D1408B0803F00403D94079
:101170004D0805F002051018E9401818C1F34006A3
:1011800028443018F140081804EB8000D0F83001F2
:101190004168C908C9000646A1EB080A09E00846EB
:1011A0004168C908C900A1EB080151453CBF8A4606
:1011B000064601690029F2D140690028F0D1206972
:1011C0008642C0F0C4807068C00808EB0A09C000FD
:1011D00008EB060B484518BF00F06EFE5E4580F038
:1011E000B680F768B569B7420CD0B068216988420B
:1011F00023D3C168B14204BFB968B1421DD1C760F1
:10120000B8601CE006F11400076837B906F1100059
:101210000768A7B101E00846076807F114010A68EA
:10122000002A02BF07F110010A68002AF3D12169E0
:10123000884202D30021016001E000F03DFE002D54
:1012400034D0F06904EB800000F5987001688E429C
:1012500009D10760380011D1F2696068012191401D
:101260008843606022E02069854205D32869B04246
:1012700014BF6F612F6101E000F01EFEB7B120695D
:10128000874211D3BD61306930B12169884226BFE0
:101290003861876100F010FE706938B121698842B9
:1012A00002D37861876101E000F006FEBAF1100F09
:1012B00009D249F00300706009EB0600416841F073
:1012C000010141603FE048F0030070604AF0010016
:1012D000CBF804004AF80BA0D4F808804FEAD805F0
:1012E000202D28BF00F0E8FDB8F1000F27D0D4F87A
:1012F0001490009504EBC50000F128052F46B8F1C5
:10130000100F38BF00F0D8FD2068009920FA01F1D5
:10131000C90705D4009A012191400843206006E0E6
:10132000A868216988422CBF074600F0C5FDC5F8B2
:101330000890C7F80C90C9F80870C9F80C50C4F8A8
:1013400008A0C4F814B006F10800BDE8F28F00F060
:10135000B3FD0020BDE8F28F2DE9F04F83B00546C4
:10136000C046C046DFF8C44AF52D80F002810B2D3F
:1013700031BF102705F10B00C008C7002068FE0828
:10138000F04010F0030F42D0C04300F00100861976
:1013900004EBC60000F12808F700D8F80850686888
:1013A000C008C000B84218BF00F086FDD5F808900C
:1013B000454508BF00F080FD4D4508BF00F07CFDAD
:1013C0006868C008C000B84218BF00F075FDC84585
:1013D00005D120680121B140884320600DE02069DB
:1013E000814508D3D9F80C00A84204D1C8F8089068
:1013F000C9F80C8001E000F05FFD47F00300686071
:1014000078190835416841F001014160F9E0A168AF
:10141000B94280F0C080002800F0A280012505FAC2
:1014200006F149004A42B040114308404142084099
:10143000411E080B00F01000C1404A0902F00802EA
:10144000D1408B0803F00403D9404E0806F0020691
:101450001018F1401818C1F340083018404421FA20
:1014600008F101EB000804EBC80000F128094FEA7D
:10147000C80AD9F808607068C008C000504518BF95
:1014800000F01AFDD6F808B04E4508BF00F014FD74
:101490005E4508BF00F010FD7068C008C0005045F0
:1014A00018BF00F009FDD94505D1206805FA08F1FB
:1014B000884320600DE02069834508D3DBF80C00E9
:1014C000B04204D1C9F808B0CBF80C9001E000F0AC
:1014D000F3FC47F003007060AAEB0708B81901900D
:1014E00048F0010001994860019848F80080A76819
:1014F0004FEAD70ABAF1200F28BF00F0DDFC47B34E
:10150000CDF800A004EBCA00D4F8149000F1280A2A
:10151000D346102F38BF00F0CFFC2068009920FA86
:1015200001F1C90705D4009905FA01F108432060CB
:1015300007E0DAF80800216988422CBF834600F0F2
:10154000BBFCCAF80890CBF80C90C9F808B0C9F8F1
:101550000CA0C4F8088006F108050198606150E00D
:101560006068C0B339462046FFF7EEFD050012D093
:1015700047E015F1400F28BF4FF0FF370BD205F1C0
:101580000B00C008C700606828B139462046FFF745
:101590000EFC050035D1A068B8421CD3C11B62699E
:1015A00010290AD3B8186061A16041F001034360BB
:1015B000095047F0030050600AE00021A16061611A
:1015C00040F0030151608018416841F00101416021
:1015D00002F1080515E0E06887420DD2C01BA16941
:1015E000E0607A18A26140F00100506001F1080546
:1015F00047F00300486004E039462046FEF7BBFF91
:101600000546C046C046284603B0BDE8F08F00B985
:1016100070472DE9F047A0F10804C046C046DFF846
:101620000C5828698442C0F07482616801F003029A
:10163000012A00F06E82CA084FEAC20808EB0409CA
:10164000CA0736D4226811F0030F00F06482A41A8E
:1016500090448442C0F05D8269698C4200F0D88079
:10166000D608202E70D2D4F80CA0A768544508BF25
:1016700000F022FCBC4208BF00F01EFC6068C008FD
:10168000C000B0EBC60F18BF00F016FC05EBC6009B
:1016900000F128018F4205D029698F4251D3F968A2
:1016A000A1424ED1BA453DD128680121B1408843BD
:1016B00028604C4580F02D82D9F80400C10740F124
:1016C0002882810700F17A81A969894540F0B580B7
:1016D000E868AC614044E86040F00101616069691C
:1016E0008C4202D100216961A960E969814280F0E0
:1016F0001282DFF83C07006808B9FEF752FDA969BD
:10170000002900F00882E868292824BF2846FEF74F
:101710003BFDE869E968884280F0FD814FF0FF30C9
:10172000E861F8E12830824506D02869824508D36F
:10173000DAF80800A04204D1C7F80CA0CAF8087073
:10174000B7E700F0B9FBB4E7E768A669A7420BD09A
:10175000A168814222D3C868A04204BFB868A042F1
:101760001CD1CF60B9601BE004F114010F6837B9D8
:1017700004F110010F689FB101E011460F6807F1F5
:1017800014021368002B02BF07F110021368002B2C
:10179000F3D1814202D30020086001E000F08CFB0D
:1017A000002E86D0E06905EB800000F59870016896
:1017B0008C4209D10760380011D1E26968680121C3
:1017C00091408843686074E72869864205D3306990
:1017D000A04214BF7761376101E000F06DFB002F7C
:1017E0003FF467AF28698742ABD3BE61216929B155
:1017F000814226BF39618F6100F05EFB606900287D
:101800003FF457AF296988429BD37861876150E7DD
:1018100099F8040000F0030003287FF44AAFC5F8EC
:101820000880D9F8040040084000C9F8040048F0D6
:101830000100606048F804806DE16969894508D15C
:10184000A8686C614044A86040F0010161600051EB
:1018500061E1C008C0004FEAD00A8044BAF1200F0D
:1018600036D2D9F80C70D9F80860B94508BF00F035
:1018700023FBB14508BF00F01FFBD9F80400C008E6
:10188000C000B0EBCA0F18BF00F016FB05EBCA0092
:1018900000F128018E4206D029698E42C0F0818075
:1018A000F16849457DD1B74206D12868012101FA86
:1018B0000AF18843286076E02830874205D02869FD
:1018C00087426ED3B86848456BD1F760BE606AE066
:1018D000D9F80C70D9F818604F450DD0D9F8080028
:1018E0002969884223D3C168494504BFB96849457D
:1018F0001DD1C760B8601CE009F11400076837B952
:1019000009F110000768A7B101E00846076807F170
:1019100014010A68002A02BF07F110010A68002AB0
:10192000F3D12969884202D30021016001E000F06F
:10193000C3FA002E37D0D9F81C0005EB800000F563
:101940009870016889450AD10760380012D1D9F82A
:101950001C206868012191408843686023E0286961
:10196000864205D33069484514BF7761376101E08D
:1019700000F0A2FABFB12869874212D3BE61D9F83C
:10198000101029B1814226BF39618F6100F094FAAD
:10199000D9F8140038B12969884202D37861876187
:1019A00001E000F089FA48F00100606048F8048026
:1019B000686984420BD1C5F80880ACE0400840005B
:1019C000C9F8040048F00100606048F804804FEA5C
:1019D000D807202F22D205EBC70000F128094E4678
:1019E000B8F1100F38BF00F067FA286820FA07F145
:1019F000C90704D40121B9400843286007E0D9F899
:101A00000800296988422CBF064600F055FAC9F83B
:101A10000840F460A660C4F80C907CE05FEA1820EF
:101A200008BF002123D0B0F5803F28BF1F211ED260
:101A3000A0F58071090C01F008018840A0F58052E2
:101A4000120C02F004029040A0F580431B0CC1F17F
:101A50000E0103F00203891AC91A984001EBD03035
:101A6000C11D28FA01F101F0010101EB4001E16122
:101A700000226261226105EB81006A6822FA01F3AB
:101A800000F59870DB0706D4012303FA01F1114336
:101A9000696004601CE01F2900680EBF002149082E
:101AA000C1F1190108FA01F100E010464268D208BC
:101AB000D200424510D0CA0F00EB820202F110039F
:101AC00049001A68002AF0D129698B4211D31C60A1
:101AD000A061E460A4600EE02A698168904228BF9A
:101AE000914206D3CC608460A160E0600020A061D8
:101AF00001E000F0E1F9286A401E28620BD1D5F818
:101B0000C80100E080680028FCD14FF0FF30286257
:101B100001E000F0D1F9C046C046BDE8F0872DE9EC
:101B2000F84F0D4604466B6820691646DA08D20065
:101B300011464FF0000B01EB05088542C0F06F81A4
:101B400003F00307012F00F06A81454580F06781AB
:101B5000D8F804705FEAC77E40F1618113F0030F8B
:101B60000FD1F008202824BF301D8242C0F05981D7
:101B7000DFF8BC0280684000911B8842C0F05181B0
:101B80004BE1B1421AD38A1B102AC0F0468103F000
:101B90000100304340F0020071196860486840F06D
:101BA0000100486042F0030048605018436843F069
:101BB000010343602046FEF7ABFE2EE1A26990458B
:101BC00016D1E0684018864280F02B8103F00102B4
:101BD000324342F0020271196A60801B4A6842F087
:101BE00001024A6040F001024A60A161E06014E134
:101BF000626990452BD1A0684118B142C0F01181B3
:101C0000881B03F00102102812D3324342F0020273
:101C100071196A6043184A6842F001024A6040F054
:101C200001024A6040505A68520852005A600BE064
:101C300041EA020040F0020068604819416841F042
:101C400001014160002001466161A060E5E0BA0742
:101C500000F1E780FA08D20002EB0109B145C0F0BB
:101C6000E080D108A9EB060B20293DD2D8F808A0C6
:101C7000D8F80C700091B84508BF00F01DF9D045A8
:101C800008BF00F019F9D8F804000099C008C00096
:101C9000B0EBC10F18BF00F00FF9009804EBC000C3
:101CA00000F128018A4508D021698A45C0F0888062
:101CB000DAF80C10414540F08380574506D1009A70
:101CC000206801219140884320607BE028308742D2
:101CD00005D02069874273D3B868404570D1CAF8EF
:101CE0000C70C7F808A06DE0D8F80C70D8F818A0F0
:101CF00047450CD0D8F80810814222D3C868404527
:101D000004BFB86840451CD1CF60B9601BE008F142
:101D100014010F6837B908F110010F689FB101E095
:101D200011460F6807F114021368002B02BF07F178
:101D300010021368002BF3D1814202D30020086007
:101D400001E000F0B9F8BAF1000F3BD0D8F81C0060
:101D500004EB800000F59870016888450AD107609F
:101D6000380015D1D8F81C206068012191408843C3
:101D7000606027E02069824508D3DAF8100040450A
:101D800014BFCAF81470CAF8107001E000F094F89B
:101D9000C7B12069874213D3C7F818A0D8F810102C
:101DA00029B1814226BF39618F6100F085F8D8F8EA
:101DB000140038B12169884202D37861876101E05B
:101DC00000F07AF8BBF1100F0ED2287900F0010074
:101DD00049EA000040F00200686009EB0500416834
:101DE00041F00101416018E07119287900F001000B
:101DF000304340F002006860486840F001004860ED
:101E00004BF0030048600BEB0100426842F0010216
:101E1000426020465A46FEF77BFDAB4601E000F0EB
:101E20004BF85846BDE8F28F00000000A482002065
:101E3000DC930020F8B504460D46002624B9284658
:101E4000FFF78AFA064632E015F1400F2FD20B2D2C
:101E500031BF102605F10B00C608F600A4F10807F3
:101E6000C046C046012332463946DFF84800FFF736
:101E700056FE0646C046C0460EB1083617E0284654
:101E8000FFF76AFA060012D0786810F0030F0CBF53
:101E900008210421C008C000421AAA4288BF2A466D
:101EA0002146304600F044F82046FFF7B0FB3046AC
:101EB000F2BD0000A4820020012000F085B810B41B
:101EC000020000205368435453681B0A441863708F
:101ED00053681B0C4418A37053681B0E4418E3701E
:101EE000001D9368435493681B0A441863709368F9
:101EF0001B0C4418A37093681B0E4418E370001D5C
:101F000010BC70470749086808B1002070470648B0
:101F1000C008C00008600549C908C900091A016065
:101F2000704700BFF497002027B8002020D8002079
:101F300062B38B0708D0521E11F8013B00F8013B39
:101F400000F024808B07F6D1830740F0208000BF8B
:101F5000103A07D330B4B1E83810103AA0E838107E
:101F6000F9D230BC530724BFB1E80810A0E808102C
:101F700044BF51F8043B40F8043BD20724BF31F87A
:101F8000022B20F8022B44BF0B7803707047083AED
:101F900007D3B1E80810083A40F8043B40F804CBF6
:101FA000F7D25307E4E750F8041B61B150F8042B53
:101FB000D30744BFA9F101039A18002342F8043B58
:101FC000091FFAD1EFE7704780B5C046C046024A04
:101FD00011001820ABBEFBE726000200002108001C
:101FE000062810DA0021DFF8002A42F8201000212C
:101FF000DFF8F82942F820100021DFF8F42942F830
:102000002010401CECE7704710B59FEDBE0ADFF8CA
:10201000E40980ED050ADFF8DC0980ED040ADFF849
:10202000D40980ED030ADFF8CC0980ED020ADFF85D
:10203000C40980ED010ADFF8BC0980ED000A002028
:10204000DFF8B4194861DFF8B0190861DFF8A819A2
:10205000C860DFF8A4198860DFF89C194860DFF8D1
:102060009819086000200400062C09DADFF88809B6
:1020700050F82410601CC0B201F032FA641CF3E77F
:1020800010BD0000F0B58FB000200400062C80F2D7
:102090000B81DFF8680910EB840090ED000ADFED9A
:1020A0009A0A20EE200ABDEEC00A08A810EB8400B0
:1020B00080ED000ADFF83C0910EB840090ED000A87
:1020C000DFED910A20EE200ABDEEC00A02A810EB57
:1020D000840080ED000A02A850F82400002814D1E2
:1020E0000020DFF8141941F824000020DFF8FC1864
:1020F00041F824000020DFF8F01841F82400002007
:10210000DFF8EC1841F82400CCE002A850F82400D5
:1021100001280BDBDFF8E00850F82400002805D187
:102120006420DFF8D41841F8240010E002A850F829
:10213000240000280BD5DFF8C00850F82400002840
:1021400005D17FF06300DFF8B01841F8240002A841
:1021500050F82400B0F57A7F04DD4FF47A7002A9BC
:1021600041F8240002A850F8240010F57A7F04DA20
:10217000DFF88C0802A941F8240002A850F82400D6
:1021800008A951F82410401A0500DFF85C0850F83F
:102190002400281A00EE100AB8EEC00ADFF864081E
:1021A000D0ED000A20EE200A00EE905AF8EEE00A88
:1021B000DFF8540890ED001A00EE810ADFF82808D5
:1021C00050F82400B5EB4000DFF8241851F8241033
:1021D000081800EE900AF8EEE00ADFF8300890EDFB
:1021E000001A00EE810ABDEEC00A10EE100A0600C9
:1021F000652E01DB6420060016F1640F02DA7FF021
:1022000063000600DFF8F00750F824003018DFF80C
:10221000E81741F82400DFF8E00750F82400B0F593
:102220007A7F05DB40F2E730DFF8CC1741F8240075
:10223000DFF8C40750F82400DFF8D417884205DA25
:10224000DFF8CC07DFF8B01741F8240002A850F8F7
:10225000240001280ADBDFF8A00750F8240000283A
:1022600004D50020DFF8901741F8240002A850F8A8
:10227000240000280AD5DFF8800750F82400012840
:1022800004DB0020DFF8701741F82400DFF858075E
:1022900050F82400DFF8581741F82400DFF8480709
:1022A00040F82450641CF1E600A8DFF868170CC958
:1022B0000CC00839083800200400062C20DA012759
:1022C000032C06DA00A8205C032802DB5FF0FF3055
:1022D0000700032C06DB00A8205C032802DA5FF06D
:1022E000FF300700DFF8100750F8240007FB00F16B
:1022F00000A8205C401CC0B201F0F2F8641CDCE7CE
:102300000FB0F0BD0000000000007A4410B52DEDC4
:10231000048BDFF804070068002817D001F0AFFA3B
:10232000DFF8F4160968401A01280FDBDFF8EC0625
:1023300000210160DFF8E80600210160DFF8E40613
:10234000002101600020DFF8D0160860DFF8CC061D
:1023500090ED000AB5EE400AF1EE10FA06D5DFF86E
:10236000BC0690ED000AB1EE400A03E0DFF8AC06CF
:1023700090ED000ADFEDDC0AB4EE600AF1EE10FA2F
:102380004FD5DFF89C0690ED000AB5EE400AF1EE5D
:1023900010FA06D5DFF8880690ED000AB1EE400A83
:1023A00003E0DFF87C0690ED000ADFEDCF0AB4EE23
:1023B000600AF1EE10FA34D5DFF8680690ED000AF5
:1023C000B5EE400AF1EE10FA06D5DFF8580690EDAA
:1023D000000AB1EE400A03E0DFF8480690ED000A7B
:1023E000DFEDC20AB4EE600AF1EE10FA19D5DFF89B
:1023F00038060068002814D00020DFF82C1608608A
:1024000000200400062C06DA0020DFF8EC1541F865
:102410002400641CF6E7FFF7F7FDDFF81006002143
:102420000160DFF8F80590ED000AB5EE400AF1EE24
:1024300010FA06D5DFF8E40590ED000AB1EE400A87
:1024400003E0DFF8D80590ED000ADFEDA70AB4EE4F
:10245000600AF1EE10FA35DADFF8C40590ED000AF3
:10246000B5EE400AF1EE10FA06D5DFF8B40590EDAE
:10247000000AB1EE400A03E0DFF8A40590ED000A7F
:10248000DFED990AB4EE600AF1EE10FA1ADADFF81D
:10249000940590ED000AB5EE400AF1EE10FA06D56B
:1024A000DFF8800590ED000AB1EE400A03E0DFF8A6
:1024B000740590ED000ADFED8D0AB4EE600AF1EECE
:1024C00010FA3FDBDFF86005006800283AD10120F0
:1024D000DFF854150860FFF781FDDFF8880B002155
:1024E0000160DFF8840B00210160DFF84005002166
:1024F0000160DFF8780BDFF8781B09680160DFF80E
:10250000740BDFF86C1B0968016000200400062CC6
:1025100006DA0020DFF8E01441F82400641CF6E736
:10252000DFF8580B006800280CD001F0A8F9DFF89C
:102530004C1B09680818DFF8E01408600020DFF879
:102540003C1B0860DFF8E0040068002800F05081C0
:10255000DFF8D00490ED008ADFF8C00490ED000AA7
:10256000DFF8BC04D0ED000A30EE600ADFF8840426
:1025700080ED050ADFF87C044069DFF87814086014
:10258000DFF8980490ED000ADFF89404D0ED000A1B
:1025900030EE200ADFF85C0480ED030ADFF8540413
:1025A000DFF85014C9688160DFF8740490ED000A08
:1025B000B5EE400AF1EE10FA06D5DFF8640490EDAE
:1025C000000AB1EE400A03E0DFF8540490ED000A7F
:1025D000DFED450AB4EE600AF1EE10FA0CD5DFF833
:1025E0001404DFF8381409680161DFF80804DFF823
:1025F00004140969416009E0DFF8F8030021016172
:10260000DFF8F003DFF8EC1309694160DFF8140428
:1026100090ED000AB5EE400AF1EE10FA1ED001F07E
:102620002EF900EE100AB8EE400ADFF8F803D0EDFC
:10263000000A9FED711A60EE810A9FED701AC0EEDC
:10264000810AB3EE0E1AC0EE810A30EE200ABDEE0A
:10265000C00ADFF8340A80ED000A24E0DFF8C40382
:1026600090ED000AB5EE400AF1EE10FA1BD1DFF84A
:10267000180A0068002816D001F001F9DFF8081ADE
:10268000096881420FD20020DFF8FC190860DFF8EA
:10269000DC09DFF8DC1909680160DFF8D809DFF828
:1026A000D01909680160DFF8E4090078002830D00B
:1026B000DFF8D409006800282BD1DFF8B00990EDCD
:1026C000000ADFF8AC09D0ED000A30EE600ADFED59
:1026D0004C0AB4EE600AF1EE10FA09DBDFED490AAC
:1026E00030EE200A0FE000BF6F12833A0AD7233C76
:1026F000DFED450AB4EE600AF1EE10FA03D5DFED26
:10270000430A30EE200ADFF88809D0ED000A00EE17
:10271000808A9FEDAD0A28EE000AF0EE000AC0EEB6
:10272000208A9FEDAA0A28EE000AF0EE000A80EE49
:10273000209A18EE900A01F043F9DFF85829DFF8E3
:10274000583901F069F901F039FA08EE900AA94800
:1027500090ED000A30EE680AA64880ED000AA54810
:1027600090ED020A30EE680AA24880ED020AA14804
:1027700090ED030A30EE280A9E4880ED030A9D483A
:1027800090ED050A30EE280A9A4880ED050AA44823
:1027900090ED000AB5EE400AF1EE10FA05D5A0481A
:1027A00090ED000AB1EE400A02E09D4890ED000A6B
:1027B000DFED870AB4EE600AF1EE10FA0FD58D480E
:1027C00090ED010A30EE490A8A4880ED010A8948F5
:1027D00090ED040A30EE090A864880ED040A854827
:1027E000002101618348834909694160FFF74AFC80
:1027F000BDEC048B10BD000000003443DB0F4940EA
:10280000DC0F4940DB0FC9C0DB0F49C0DB0FC940FB
:1028100070B504000D00022CC0F2AF80DFF87C1808
:10282000686801F013FA00280AD1032CC0F2A580D1
:10283000A86801F02DFA0100A86800F027F99CE0D3
:1028400064A1686801F002FA002838D1032C0DDB7E
:10285000A86801F038FA00EE100AB8EEC00ADFED01
:102860005E0A80EE200A6D4880ED000A042C0DDB24
:10287000E86801F028FA00EE100AB8EEC00ADFEDB1
:10288000560A80EE200A664880ED000A052C0DDB12
:10289000286901F018FA00EE100AB8EEC00ADFED60
:1028A0004F0A20EE200A5F4880ED000A062C64DB08
:1028B000686901F008FADFF8C41708605DE0DFF826
:1028C000E017686801F0C2F9002856D1022C24D123
:1028D0004E4890ED000ADFED400A20EE200ABDEEE2
:1028E000C00A10EE103A484890ED000ADFED3A0AAF
:1028F00020EE200ABDEEC00A10EE102A414890EDED
:10290000000ADFED350A20EE200ABDEEC00A10EE07
:10291000101ADFF8900701F06EFD032C0DDBA8689C
:1029200001F0D1F900EE100AB8EEC00ADFED2A0A74
:1029300080EE200A334880ED000A042C0DDBE868A5
:1029400001F0C1F900EE100AB8EEC00ADFED220A6C
:1029500080EE200A2C4880ED000A052C0DDB28694A
:1029600001F0B1F900EE100AB8EEC00ADFED1A0A64
:1029700080EE200A254880ED000A012C22D1002695
:10298000052E11DA1D4810EB860090ED000ADFEDF0
:10299000120A20EE200ABDEEC00A10EE101A10A096
:1029A00001F029FD761CEBE7144890ED050ADFEDF8
:1029B0000A0A20EE200ABDEEC00A10EE101A09A085
:1029C00001F019FD002070BD9A99993ECDCC4C3E86
:1029D0006F12833A545300000000C84235FA8E3C0F
:1029E0002564200025640A007C9300209493002035
:1029F00064930020349300201C9300204C9300200B
:102A000018FCFFFF0C040020100400201404002018
:102A100019FCFFFF8898010830970020E8960020F5
:102A2000EC960020F09600201897002024970020B4
:102A300073B5040001F0C0FC0500002D25D0A520D1
:102A40008DF801005A208DF80000EE8AE88A4FF6D2
:102A5000BF710840E88201230DF101020021280026
:102A600001F045FE012301AA0021280001F03FFEEC
:102A7000019B22000021280001F039FE012300AA59
:102A80000021280001F033FEEE8273BD2DE9F24FE4
:102A900086B0040000257B20DFF80C1668546D1CFE
:102AA00020787B2840F0D2820698001910F8010C9B
:102AB0007D2840F0CB8214F1010800200699091905
:102AC00001F8010C46463D21404601F071FE80466A
:102AD000B8F1000F00F0AB82002088F8000018F178
:102AE000010847462C21404601F062FE8046B8F1BD
:102AF000000F04D0002088F8000018F101089DA103
:102B0000300001F0A3F800280BD13B009AA2DFF8B7
:102B10009C15DFF89405281801F056FE40190500B1
:102B200085E2DFF88C15300001F090F800281AD10A
:102B300038783F2840F07B82DFF8780590ED000A76
:102B4000DFEDCE0A20EE200ABDEEC00A10EE103AEC
:102B50003200DFF86415DFF85005281801F034FE64
:102B60004019050063E2DFF85415300001F06EF8FB
:102B700000281AD138783F2840F05982DFF8400504
:102B800090ED000ADFED7D0A20EE200ABDEEC00ABE
:102B900010EE103A3200DFF82015DFF80C05281887
:102BA00001F012FE4019050041E2DFF8181530006F
:102BB00001F04CF8002826D138783F2840F03782C1
:102BC000DFF8040590ED000ADFEDAC0A20EE200AE4
:102BD000BDEEC00A8DED000ADFF8F00490ED000AAA
:102BE000DFEDA60A20EE200ABDEEC00A10EE103A74
:102BF0003200DFF8DC14DFF8B004281801F0E4FD3F
:102C00004019050013E25EA1300001F01FF8002812
:102C100041D138783F282ED1DFF8B80490ED000A72
:102C2000DFED560A20EE200ABDEEC00A8DED010A46
:102C3000DFF8A40490ED000ADFED500A20EE200A30
:102C4000BDEEC00A8DED000ADFF8240490ED000A05
:102C5000DFED4A0A20EE200ABDEEC00A10EE103A5F
:102C60003200DFF87814DFF84004281801F0ACFDDA
:102C700040190500DBE1380001F025F800EE100AEC
:102C8000B8EEC00ADFEDC80A20EE200ADFF8E00344
:102C900080ED000ACBE1C5A1300000F0D7FF00288D
:102CA00070D100973B21009801F082FD81465FF0D2
:102CB000000A5FF0000BB9F1000F1ED0002089F868
:102CC000000019F101093B21484601F071FD8246DF
:102CD000BAF1000F11D000208AF800001AF1010AA1
:102CE0003B21504601F064FD8346BBF1000F04D048
:102CF00000208BF800001BF1010B009800F0E3FFAF
:102D000000EE100AB8EEC00ADFED5C0A80EE200A81
:102D1000DFF8CC0380ED000AB9F1000F0ED0484671
:102D200000F0D1FF00EE100AB8EEC00ADFED530A42
:102D300080EE200ADFF8AC0380ED000ABAF1000F44
:102D40000ED0504600F0BFFF00EE100AB8EEC00AE9
:102D5000DFED950A20EE200ADFF88C0380ED000AF3
:102D6000BBF1000F00F06381584600F0ACFFC3498F
:102D700008605CE15245510052535000E02E65421C
:102D800059415700B3A1300000F060FF00284ED138
:102D900038783F2840F04B81D44890ED050ADFEDAC
:102DA000370A20EE200ABDEEC00A8DED040ACF4896
:102DB00090ED040ADFED310A20EE200ABDEEC00AD4
:102DC0008DED030AC94890ED030ADFED2C0A20EED1
:102DD000200ABDEEC00A8DED020AC44890ED020A39
:102DE000DFED260A20EE200ABDEEC00A8DED010AB5
:102DF000BE4890ED010ADFED210A20EE200ABDEE6B
:102E0000C00A8DED000AB94890ED000ADFED1B0AFB
:102E100020EE200ABDEEC00A10EE103A3200B4498E
:102E2000A148281801F0D0FC40190500FFE08AA154
:102E3000300000F00BFF00281DD138783F2840F00B
:102E4000F680AC4840690490AA4800690390A948FC
:102E5000C0680290A74880680190A648406800902A
:102E6000A44803683200A2498F48281801F0ACFC3E
:102E700040190500DBE08A4902E000BF0000C842BB
:102E8000300000F0E3FE002874D138783F2829D1C3
:102E9000994890ED000ADFED710A20EE200ABDEEA0
:102EA000C00A8DED010A954890ED000ADFED6B0A2E
:102EB00020EE200ABDEEC00A8DED000A904890ED8C
:102EC000000ADFED660A20EE200ABDEEC00A10EE11
:102ED000103A320081497448281801F075FC4019F5
:102EE0000500A4E0B9463B21484601F061FC82465A
:102EF000BAF1000F00F09B8000208AF800001AF160
:102F0000010A3B21504601F053FC8346BBF1000F00
:102F100000F08D8000208BF800001BF1010B48466B
:102F200000F0D1FE00EE100AB8EEC00ADFED4B0A49
:102F300080EE200A724880ED000A504600F0C3FE81
:102F400000EE100AB8EEC00ADFED440A80EE200A57
:102F50006A4880ED000A584600F0B5FE00EE100AFF
:102F6000B8EEC00ADFED3D0A80EE200A624880ED2F
:102F7000000A5CE03AA1300000F068FE002817D19A
:102F800038783F280AD14148037832004A494648F8
:102F9000281801F019FC4019050048E0380000F03D
:102FA00092FE3A49087042E035FA8E3C54530000D4
:102FB00031A1300000F04AFE002825D138783F28A2
:102FC00013D1334890ED000ADFED2D0A20EE200AE0
:102FD000BDEEC00A10EE103A3200374932482818C8
:102FE00001F0F2FB4019050021E0380000F06BFE13
:102FF00000EE100AB8EEC00ADFED220A20EE200A29
:10300000234880ED000A12E03E49300000F01EFE29
:10301000002802D101F0F9FB09E03B49300000F043
:1030200015FE002803D14FF4C87001F098FDB8F1E7
:10303000000F7FF447AD022D08DB7D201A49691887
:1030400001F8010C29001848FFF7F2FC07B0BDE8B1
:10305000F08F00BF575300004D5000000000C842E1
:10306000594C00001C970020209700202897002032
:10307000109700202C97002050310000149700205A
:10308000E02E654235FA8E3C3497002015980020DA
:1030900018040020CDCCCCCCCCCCF43F90980108C7
:1030A000989801084494010810880020A09801080D
:1030B000A8980108F8960020B0980108B89801086F
:1030C000F4960020C09801080C9700200897002073
:1030D00050940108389700208C960020D88F010862
:1030E000E8960020EC960020F09600204C930020FB
:1030F000EC8301081C93002014040020100400201D
:103100000C040020C8980108D098010810B50400EC
:103110002000441E002804D04FF47A7000F094FB85
:10312000F6E710BD80B50A2000F08EFB01BD1CB58E
:103130000400E4B2002C14D04FF400700090012081
:103140008DF8040001208DF8060001208DF807009D
:1031500002208DF8050000A9DFF8AC0401F050FE54
:1031600013E04FF40070009000208DF80400002060
:103170008DF8060001208DF8070002208DF805006B
:1031800000A9DFF8840401F03BFE13BD80B54FF4C5
:103190000071DFF8740401F095FEFFF7C3FF4FF4F0
:1031A0008071DFF8640401F08DFEFFF7BBFF4FF480
:1031B0000071DFF8540401F087FEFFF7B3FF4FF40E
:1031C0008071DFF8440401F07FFEFFF7ABFF01BD23
:1031D00080B54FF40071DFF8300401F075FEFFF7A1
:1031E000A1FF4FF48071DFF8200401F06BFEFFF7C0
:1031F00099FF4FF40071DFF8100401F063FEFFF750
:1032000091FF01BD10B500244FF48071DFF8F80381
:1032100001F058FE4FF40071DFF8EC0301F045FEB9
:103220000400FFF77FFF4FF48071DFF8DC0301F04B
:103230004BFEFFF777FF0120FFF779FF2000C0B2B8
:1032400010BD70B50400260000200500EDB2082D69
:1032500021DA4FF48071DFF8B00301F035FE30065B
:1032600006D54FF40071DFF8A00301F02BFE05E056
:103270004FF40071DFF8900301F026FEFFF752FFD4
:103280004FF48071DFF8800301F01CFEFFF74AFF66
:1032900076006D1CDAE74FF48071DFF86C0301F003
:1032A00013FE0020FFF743FFFFF73CFF70BDF8B5AA
:1032B00004004FF48071DFF8500301F005FEFFF7C2
:1032C00031FF4FF40071DFF8400301F0FBFDFFF721
:1032D00029FF0020FFF72BFF00200500EDB2082D8D
:1032E00020DAFFF71FFF4FF48071DFF81C0301F0B5
:1032F000E9FDFFF717FF4FF40071DFF80C0301F051
:10330000D4FD002802D00120060001E000200600C4
:1033100056EA47074FF48071DFF8EC0201F0D4FD64
:103320006D1CDBE7E4B2002C15D04FF40071DFF820
:10333000D80201F0C9FDFFF7F5FE4FF48071DFF808
:10334000C80201F0BFFDFFF7EDFE4FF48071DFF81A
:10335000B80201F0B9FDFFF7E5FE0120FFF7E7FE37
:103360003800C0B2F2BD70B504000D001600600058
:1033700010F07E04FFF70AFF54F08000C0B2FFF7A0
:1033800060FFFFF73FFF2800C0B2FFF75AFFFFF7CB
:1033900039FF3000C0B2FFF754FFFFF733FFFFF7EC
:1033A00017FF70BD2DE9F04104000D0016001F004D
:1033B000600010F07E04FFF7E9FE54F08000C0B218
:1033C000FFF73FFFFFF71EFF2800C0B2FFF739FFEE
:1033D000FFF718FF002080465FFA88F8FFB2B84573
:1033E0000AD25FFA88F818F80600FFF72AFFFFF7FD
:1033F00009FF18F10108EFE7FFF7EAFEBDE8F081E9
:1034000070B504000D00600010F07E04FFF7BEFEF2
:1034100054F08000C0B2FFF714FFFFF7F3FE28005E
:10342000C0B2FFF70EFFFFF7EDFEFFF7AFFE54F05F
:103430008100C0B2FFF705FFFFF7E4FE0020FFF7B1
:1034400036FF0600FFF7C4FE3000C0B270BD80B585
:10345000002200210120FFF786FF00220021022028
:10346000FFF781FF01BD70B582B00400DFF89C0258
:103470000088ADF8000000212000C0B2FFF7C0FFB7
:10348000050015F07F0050F0100006003200D2B2A7
:1034900000212000C0B2FFF766FF00A8E4B22018A8
:1034A00010F8012CFE212000C0B2FFF75CFF2A00BB
:1034B000D2B200212000C0B2FFF755FF0220FFF773
:1034C00025FE55F0A102D2B200212000C0B2FFF7C4
:1034D0004AFF00212000C0B2FFF792FF050073BD34
:1034E0007FB504000D00B5F57A7F02DD4FF47A70E8
:1034F000050015F57A7F01DA89480500002D01D510
:10350000684200E028004FF4805148434FF47A713C
:1035100090FBF1F6002D18D100208DF8000010204E
:103520008DF8010000208DF8020000208DF80300C6
:1035300000208DF8040010208DF8050000208DF883
:10354000060000208DF8070048E0E4B2012C05D009
:10355000E4B2022C02D0E4B2032C01D1012D0ADA2C
:10356000E4B2042C05D0E4B2052C02D0E4B2062C5F
:103570001BD1002D19D500208DF8000000208DF8FA
:10358000010000208DF8020010208DF803000020BB
:103590008DF8040000208DF8050030008DF806003D
:1035A000B6B2300A8DF8070018E000208DF8000050
:1035B00000208DF8010030008DF80200B6B2300A0C
:1035C0008DF8030000208DF8040000208DF8050020
:1035D00000208DF8060010208DF8070002A8514940
:1035E0000CC90CC008390838082300AA02A8E4B2A4
:1035F000201810F8010C8000811DC9B20120FFF7CE
:10360000D1FE7FBD0000000000040240F8B52DEDA2
:10361000028B82B004000D0000EE105AB8EEC00A12
:10362000DFED3B0A9FED3B1A00EE201ABDEEC18A8A
:10363000002C01D4062C00DB2CE0002D03D19FEDE3
:10364000360AB0EE408A002D02D4B5F5E16F00DDF8
:1036500020E0B8EEC80ADFED310A20EE200ABCEE09
:10366000C00A10EE106A40F6FF70871B00208DF82C
:10367000000000208DF8010030008DF80200300AB3
:103680008DF80300042300AAA000811DC9B2022006
:10369000FFF788FE02B0BDEC028BF1BD00B583B030
:1036A0000121022001F0C5FC4FF480700090012040
:1036B0008DF8040001208DF8060001208DF8070028
:1036C00002208DF8050000A9174801F099FB4FF47E
:1036D0000070009000A9144801F092FB4FF40071B3
:1036E000114801F0EFFBFFF71DFD4FF480710E480C
:1036F00001F0E8FBFFF716FDFFF7A9FE0120FFF739
:10370000B2FE0220FFF7AFFE07BD0000BA3B000883
:1037100086388E3F0000FA4300000000FCA9513EAD
:1037200018FCFFFF809801080004024010B440B26A
:10373000002808D50A018D4B40B210F00F04E318A1
:1037400003F8042C03E00A01894B40B2C25410BCB8
:103750007047BFF34F8F8748006810F4E0608649D8
:10376000084384490860BFF34F8FFEE710B504009B
:10377000601EB0F1807F01D301200EE0601E7F4902
:1037800008600F215FF0FF30FFF7D0FF00207C4979
:10379000086007207B490860002010BD7A48704708
:1037A0007A48704780B500215FF0006001F0DCFCD2
:1037B0004FF4A06001F09EFC01BD1FB500A801F010
:1037C000B7FB01984FF47A71B0FBF1F004002000D0
:1037D000FFF7CCFF042001F0CDFC1FBD80B501F048
:1037E000EBFC01F028FD01F0FBFC01BDF0B4644EE0
:1037F00036683100614E36683400654E3668654F74
:10380000B6FBF7F635005E4E366832008A4201D2CA
:103810008B1A01E00B199B1A00FB05F6B342F2D399
:10382000F0BC704710B50400B4F5FA7F06D34FF42E
:10383000FA70FFF7DBFFB4F5FA74F5E7002C02D05D
:103840002000FFF7D3FF10BD10B504002000FFF7E4
:10385000E9FF10BD70B5494800684FF47A71B0FBBC
:10386000F1F44748056845480068401BB0FBF4F692
:1038700001F0DEFC4FF47A7101FB006070BD80B591
:1038800001F0D6FC02BD10B5FFF78CFFFFF795FFE6
:10389000FFF786FF0400FFF781FF210001F072FDB2
:1038A00002F022F802F0BBF83B4800F088FD10BDA2
:1038B000F0B58BB004000D00384E00A8384928221E
:1038C000FEF746FB012C23D130882B2806D03C285C
:1038D00007D0A22808D10020070007E00120070038
:1038E00004E00220070001E00320070000A8FFB267
:1038F0000A2101FB07012B4800F07DFD2A4800F05A
:103900007AFD2A4800F077FD294800F074FD27E091
:10391000022C25D12749686800F06BFA00280CD1E9
:103920003088A22806D0A220308004221B492248D9
:1039300002F0BEF9FFF70DFF12E00BA1686800F07E
:1039400058FA00280CD130883C2806D03C20308022
:1039500004221249184802F0ABF9184800F04BFD58
:1039600000200BB0F0BD00006170700018ED00E0A9
:1039700000E400E00CED00E00400FA0514E000E0D3
:1039800018E000E010E000E034040020346800207B
:103990002004002040420F00B0970108009600204C
:1039A000FC730108C88C01080C82010878760108B4
:1039B00024820108B897010800C00008D88C0108CB
:1039C0005FF0FF0C1CEAD05114BF614506E0C11046
:1039D000400721F0E04101F16051704779B900F0F2
:1039E000004100020AD0B0FA80FC00FA0CF001F1AC
:1039F0006051A1EB0C5101EBD02140057047410211
:103A00000CBF40F4E0016FF0000100207047026835
:103A1000531C036011707047B0B581EA030C0CF0C1
:103A2000004C40F2FF7515EA11541DBF15EA1357FB
:103A3000AC42AF4239E0E41923EA455343F4801322
:103A4000C90241F0004141EA505EC7021100A7FBE4
:103A5000020200284FF00000EEFB01204FF00001B1
:103A6000E3FB072118BF42F0010240180021494141
:103A7000E3FB0E01A4F580640F0302D25200404123
:103A8000494154F101046CDD470872F1004250F1E4
:103A9000000051EB0451A1F580115CBF41EA0C011B
:103AA000B0BD4CEA05510020B0BD05EA1357AC4249
:103AB00014BFAF4241E050EA410E1CBF52EA430E30
:103AC00002E061460020B0BD24423C441BD15FEAC5
:103AD000070EF6D0090302BF01460020AEF1140E16
:103AE000B1FA81F7AEEB070401FA07FE0C37C7F114
:103AF000200100FA07F7C8404EEA000E23EA4553BA
:103B000043F48013A2E733F00043B3FA83F704BF12
:103B1000B2FA82FE77440B3FE41BB7F1200E2FBFB1
:103B200002FA0EF3BB40C7F1200E22FA0EFE38BF98
:103B300043EA0E03BA40641C82E750EA410E14BF08
:103B400052EA430E6FF000014FF4001717EB430FDA
:103B50008ABF194617EB410FB5E74CEA0551002023
:103B6000B0BDD4F10104B4F120070FDAC4F120078D
:103B7000520828BF42F0010210FA07F501FA07F7D0
:103B8000E1BF2A43E0403843E1400FE0352C98DCA8
:103B9000C7F1200452EA400220FA07F218BF42F0AF
:103BA000010231FA07F0A1400A43002172F10042FC
:103BB00050F1000051EB0C01B0BD007A4FEAF17CEE
:103BC000BCF1E04C2CBFBCF5001F11E05FEA4C0CCF
:103BD00034BFBCF17F5F2EE05FEA9C0C4FEA0C1C07
:103BE0004FEA3C0CC10071F100414CEB5070704742
:103BF000C90241EA5051C00218BF41F0010141F031
:103C000000414FEA6C50C0F10900212810D240EA6F
:103C1000CC7CCCF1200C11FA0CF070F10040CCF10E
:103C2000200C21FA0CF00CF0004C40EB0C0070471B
:103C30004FEACC707047490011F5001F04D84FEAD5
:103C4000CC10FF30C0057047C8177047820707D0F7
:103C500010F8012B11F8013BBAB19A42F6D014E0EA
:103C600002680B689A42A2F1013301BF934313F03B
:103C7000803F50F8042F51F8043FF3D010F8012B87
:103C800011F8013B0AB19A42F8D0D01A70470000EF
:103C900000F10103810704D010F8011B89B18107ED
:103CA000FAD10268B2F10131914311F0803F04BFB3
:103CB00050F8042FF6E710F8011B11B110F8011BA2
:103CC000FBE7C01A70470A22002102F017B9000072
:103CD00038B5040001F098FA002803D0DFF8B407E3
:103CE000046009E002F008FA0500002D03D1DFF8B6
:103CF000A407046000E02C6331BDF0B40300CEB231
:103D0000042A1CD310F00307002F18D1050056EA2F
:103D100006273C0054EA0444102A09D32C602D1DC8
:103D20002C602D1D2C602D1D2C602D1D103AF3E7ED
:103D3000042A03D32C602D1D121FF9E72B00170056
:103D40007A1E002F02D01E705B1CF8E7F0BC704793
:103D500030B403000C009C420DD21519AB420AD2BC
:103D6000D318141915006A1E002D0DD05B1E641E99
:103D700025781D70F6E715006A1E002D04D0257801
:103D80001D70641C5B1CF6E730BC704730B4002A21
:103D900013D003000C002578641C1D705B1CEDB271
:103DA000002D07D1521E002A03D000251D705B1C78
:103DB000F8E702E0521E002AEDD130BC704730B463
:103DC00003000020002A11D093F9004091F900501F
:103DD000641B2000491C40B2002804D11C00631C55
:103DE0002478002C00D101E0521EEBE740B230BC39
:103DF00070470278002A06D002780B789A4202D1E6
:103E0000401C491CF5E700780978401A704701000A
:103E10000A78002A01D0491CFAE7081A704780B5D1
:103E2000DFF8740600F0E7FADFF8700600F0E3FA56
:103E3000DFF86C060090022300220421DFF86406FC
:103E400000F0D9FADFF8600600F0D5FA01BD30B411
:103E500002000A290CD113680A24B3FBF4F504FB11
:103E60001533180013680A24B3FBF4F3136009E058
:103E700013681024B3FBF4F505FB14352800136810
:103E80001B09136030BC7047010000200A681278DB
:103E9000303A0A2A08D20A68531C0B600A231278A7
:103EA00003FB00203038F1E770472DE9FC4F87B065
:103EB00004000D00139EDDF850A001961298804674
:103EC0005FEA4A6002D5DFF8E49501E0DFF8E095AB
:103ED0005FEACA6001D53AF0010A5FEACA7002D50A
:103EE0005FF0300B01E05FF0200B00208DF8000048
:103EF0005FEA8A7016D50798002806D52D208DF820
:103F000000000798404207900CE05FEA4A7003D532
:103F10002B208DF8000005E05FEA0A7002D5202012
:103F20008DF80000002007000798002804D13020F9
:103F300002A978547F1C0CE00798002809D0089942
:103F400007A8FFF784FF10F8090002A978547F1C26
:103F5000F2E7BE4200DA3E00B8EB06081AF0110F95
:103F600013D19DF80000002804D0B8F1010F01DB47
:103F7000B8F101084046B0F10108012805DBAC4268
:103F800001D220202070641CF4E79DF80000002876
:103F900007D0AC4202D29DF800002070B8F10108B1
:103FA000641C5FEACA600AD44046B0F101080128E7
:103FB00005DBAC4201D284F800B0641CF4E73000A9
:103FC000461E874205DAAC4201D230202070641CC4
:103FD000F5E73800471E012809DB0198002806D0C4
:103FE000AC4202D202A8385C2070641CF1E7404663
:103FF000B0F10108012805DBAC4201D2202020707D
:10400000641CF4E7200009B0BDE8F08F2DE9F74FFC
:1040100086B01C0006988346069807990818070082
:104020000698874205D25FF0FF3007000698381ADD
:10403000079008980078002800F090810898007890
:10404000252808D0BB4503D2089800788BF80000DB
:104050001BF1010B7EE1002081460898401C08906E
:10406000089800782D2802D159F01009F5E7089832
:1040700000782B2802D159F00409EEE7089800785F
:10408000202802D159F00809E7E70898007823288A
:1040900002D159F02009E0E708980078302802D1D1
:1040A00059F00109D9E75FF0FF308246089800789F
:1040B00030380A2804D208A8FFF7E6FE824610E04E
:1040C000089800782A280CD10898401C089020688D
:1040D000241D8246BAF1000F03D5DAF1000A59F027
:1040E00010095FF0FF300490089800782E281BD14B
:1040F0000898401C08900898007830380A2804D2A4
:1041000008A8FFF7C1FE049009E0089800782A2863
:1041100005D10898401C08902068241D049004983C
:10412000002801D50020049000208DF80C0008988C
:104130000078682803D0089800786C2806D1089881
:1041400000788DF80C000898401C08900A208DF823
:104150000D0008980078252800F0A280582800F06B
:10416000AB80632813D0642800F0AC80692800F08D
:10417000A9806F2800F09C80702879D0732830D0F7
:10418000752800F0A180782800F098809DE05FEA13
:10419000C9600CD4BAF1010ABAF1010F07DBBB45C3
:1041A00002D220208BF800001BF1010BF2E72068FF
:1041B000241D8DF80E00BB4503D29DF80E008BF830
:1041C00000001BF1010BBAF1010ABAF1010F07DB84
:1041D000BB4502D220208BF800001BF1010BF2E757
:1041E000B8E02068241D8046B8F1000F02D1DFF846
:1041F000C40280464046FFF70AFE05900498012855
:1042000005DB04980599884201DA049805905FEA75
:10421000C9600DD45046B0F1010A0599814207DA10
:10422000BB4502D220208BF800001BF1010BF1E707
:1042300000200600059886420BDABB4503D298F8A9
:1042400000008BF800001BF1010B18F10108761C2F
:10425000F0E75046B0F1010A0599814207DABB4503
:1042600002D220208BF800001BF1010BF1E771E076
:104270001AF1010F03D10820824659F00109226882
:10428000241D5FFA89F9CDF8089004980190CDF8C3
:1042900000A0102339005846FFF707FE834659E077
:1042A000BB4502D225208BF800001BF1010B51E029
:1042B00008208DF80D0020E059F0400910208DF8FD
:1042C0000D001AE059F0020917E0BB4502D2252083
:1042D0008BF800001BF1010B08980078002808D02B
:1042E000BB4503D2089800788BF800001BF1010B46
:1042F00002E00898401E08902CE09DF80C006C2805
:1043000006D12068241D05005FEA897012D511E0EE
:104310009DF80C00682808D12068241D80B2050093
:104320005FEA897006D52DB204E02068241D0500DF
:104330005FEA89705FFA89F9CDF8089004980190D6
:10434000CDF800A09DF80D302A0039005846FFF73F
:10435000ACFD83460898401C08906AE60798002840
:1043600008D0BB4503D200208BF8000002E00020FB
:1043700007F8010C0698BBEB000009B0BDE8F08F10
:1043800070B504000D00160033002A005FF0FF3105
:104390002000FFF73BFE70BD0CB4F8B504000D0023
:1043A00006A807003A0029002000FFF7E9FF0600F1
:1043B0003000F2BC5DF80CFB3F480068704770B5F8
:1043C00004003D4800680600200000F09AF805004F
:1043D000002D0DD038480068002803D0364800680A
:1043E00000F01FF94321280000F0C1F832480560B1
:1043F000300070BD70470EB4F0B5040005A805008C
:104400002B002200FF212D48FFF700FE0600FF2EA3
:1044100001D9FF20060028480068002803D127485A
:10442000FFF7E8FF14E024480068078B2248006883
:10443000008B50F0400020490968088333001F4A70
:1044400000211D48006800F052F91B4800680783EE
:10445000F0BC5DF810FB70B582B004000D001600D2
:1044600000208DF800001648006800280AD13300AB
:104470002A0021001348FFF7BEFF9DF80000002826
:1044800006D1FAE73200290020000D4B1B6898473F
:1044900073BD00009C960020E49301087477010826
:1044A000F09301085C7C01084C73010880890108C5
:1044B0006C89010848980108A09600201087002008
:1044C000A4960020E471010870B504000D001600E8
:1044D000002C02D15FF0FF3012E0280000F011F84C
:1044E000002802D05FF0FF300AE02A0009212000F6
:1044F00001F0C0FFE6820020A0760020208300208B
:1045000070BDF8B5040001F0F7FD002801D002F0FD
:104510004CFA092001F099FF0700002F06D17C22F8
:10452000DFF86812DFF86802FFF795FF7868060089
:10453000381D864213D0B6F10C0005000822210078
:104540002800FFF73CFC002807D101F0D5FD00282A
:1045500001D002F037FA280008E03668E8E701F0F9
:10456000CBFD002801D002F02DFA0020F2BD70B57D
:1045700004000D000026002C04D1F4228649814855
:10458000FFF769FF200002F073F8092804D0F52234
:1045900081497D48FFF75FFFA07DC00613D4606AA4
:1045A00000280CD02000616A88470600002E06D043
:1045B000320021007748FFF71EFF300030E0E08A2C
:1045C00050F01000E082A07D000705D5207E000796
:1045D00002D57FF0060023E0A06A002806D029005B
:1045E00089B22000A26A9047060003E040F60F70EF
:1045F00028402083002E02D016F1060F0FD1208B09
:1046000050F008002083A07E401CA076A07E0028E9
:1046100005D140F2231260496048FFF71CFF3000CB
:1046200070BD38B504000025002C05D140F23512CC
:104630005B495448FFF70FFF200002F019F80928E2
:1046400005D04FF49B7256494F48FFF704FFA07EF8
:10465000002802D15FF0FF3016E0A07E401EA07659
:10466000A07E002801D000200EE0E06A002803D0E0
:104670002000E16A88470500002D02D015F1060FE1
:1046800001D100202083280032BDF8B504000D00C0
:1046900016001F00002C05D140F25F124149394835
:1046A000FFF7D9FE200001F0E3FF092805D04FF401
:1046B000B0723C493448FFF7CEFEA07E002805D1F9
:1046C0005FF0FF30FFF704FB00200FE0206B0028B5
:1046D00007D03B00320029002000D4F830C0E0476A
:1046E00004E07FF00500FFF7F3FA0020F2BDF8B513
:1046F00004000D0016001F00002C05D14FF4C372FA
:1047000029492048FFF7A7FE200001F0B1FF092842
:1047100005D040F2871224491B48FFF79CFEA07E7B
:10472000002805D15FF0FF30FFF7D2FA00200FE03C
:10473000606B002807D03B00320029002000D4F82D
:1047400034C0E04704E07FF00500FFF7C1FA002025
:10475000F2BD38B504000D00002C05D140F2C112A5
:1047600012490848FFF777FE200001F081FF092871
:1047700005D04FF4E1720D490348FFF76CFEE56187
:10478000002032BD188F010848700108288F0108E9
:104790007483010874710108388F01084489010885
:1047A000488F0108588F0108688F01089C7E010816
:1047B0000278C9B28A421AB11CBF10F8012FF9E77A
:1047C00018BF0020704700000CB41CB5044604A8B4
:1047D00001900A46009401AB00A9074878441830BC
:1047E00002F02CF9009A0021117000285CBF00989B
:1047F000001B16BC5DF80CFB17F2FFFF38B5040078
:104800000D00200003F0E7FA32BD01208A4908605C
:104810007047000038B589480021C16000A9884868
:10482000FFF7ECFF002801D100201EE00024002546
:1048300024B200EE104AB8EEC00A2DB200EE905A33
:10484000F8EEE00A9FED7B1A00EE810AF2EE040A10
:1048500020EE200A794880ED030A794878490968F2
:104860008847012077490860012032BD10B5040057
:1048700075497348724A52689047002800F0D88002
:10488000002003280DDA704931F9101000EE101ADB
:10489000B8EEC00A694911EB800181ED000A401CA5
:1048A000EFE765480068012829D1022004F002F9E9
:1048B00066480460002003281EDA0021644A12685A
:1048C00022F810105D4911EB800191ED000ABDEE58
:1048D000C00A10EE101A5F4A22F81010574911EB67
:1048E000800191ED000ABDEEC00A10EE101A5A4A7E
:1048F00022F81010401CDEE702204F4908605148A2
:10490000006800282FD052480068B0F9000000EE7F
:10491000100AB8EEC00A4948D0ED000A30EEC00ACD
:10492000464880ED000A4A480068B0F9020000EEEF
:10493000100AB8EEC00A4148D0ED010A30EEC00AB4
:104940003E4880ED010A42480068B0F9040000EEDC
:10495000100AB8EEC00A3948D0ED020A30EEC00A9B
:10496000364880ED020A39480068002860D0374890
:104970000068201A394988423ED20020032857DABD
:10498000344931F9101000EE101AB8EEC00A2B4964
:1049900011EB8001D1ED000AF4EE400AF1EE10FABD
:1049A0000BD5264911EB800191ED000ABDEEC00A3E
:1049B00010EE101A274A22F81010274931F910106A
:1049C00000EE101AB8EEC00A1C4911EB8001D1EDBF
:1049D000000AB4EE600AF1EE10FA0BD5174911EB9C
:1049E000800191ED000ABDEEC00A10EE101A1A4ABD
:1049F00022F81010401CC1E7002014490860002074
:104A000003280FDA134931F91010134A32F9102034
:104A10005118022291FBF2F10D4A126822F810108F
:104A2000401CEDE7002004490860022004F042F831
:104A300010BD00008988883C08960020C49400209E
:104A4000F49300200C960020B895002010960020CA
:104A500004040020C0950020C895002080C3C9012F
:104A600000210180002141807047DFF86C0300784D
:104A700000280FD10120DFF8601308700A20DFF84A
:104A80005C1308800020DFF8541388700020DFF8E2
:104A90004C13C870DFF84403704710B504002000C1
:104AA00002F0C7FF10BDF8B5040034250026DFF87A
:104AB000347332002900380004F010F8FFF7D5FFF6
:104AC000C078C8494876C748FFF7E7FF002801D1FA
:104AD000002043E04FF48070C2490882C148C149B8
:104AE00049688847BF48008A00EE100AB8EE400ABD
:104AF000F7EE000A80EE800ABA4880ED000A200036
:104B00007D3805D07D3803D07D3801D07D3804D183
:104B10004FF47A70B349086203E04FF47A70B149F8
:104B20000862FFF7A2FF0088AD490880AC48008802
:104B3000002812D00025032D0FDAAA48016AA848E0
:104B4000008800EE100AB8EE400AA748242202FBB3
:104B5000050004F027F86D1CEDE70120F2BDA34924
:104B600008807047A1480088002801D1012000E09A
:104B70000020C0B270479D480088012801D1012063
:104B800000E00020C0B2704798480088B0F5C87FA8
:104B900001D1012000E00020C0B2704738B5040008
:104BA0000025032D2DDAFFF7EFFF002808D0002D98
:104BB00002D1022003F07EFF00208D4941F825003C
:104BC0008B4850F8250000EE100AB8EEC00A854860
:104BD00010EB8500D0ED090A30EE200ABDEEC00AC8
:104BE000834810EB850080ED000A7E4810EB8500BD
:104BF0000021416200207F49096821F815006D1CE1
:104C0000CFE7FFF7B8FF002827D079480068C83001
:104C10004FF4C87190FBF1F0764909680880744838
:104C20004068C8304FF4C87190FBF1F071490968D1
:104C300048806F488068C8304FF4C87190FBF1F02D
:104C40006849B1F91010401A6A4909688880200043
:104C5000FFF706FF022003F02DFF64480088401E86
:104C60006249088031BDB0F9001000EE101AB8EEAC
:104C7000C00A5C49D1ED090A30EEC00A594981EDFC
:104C8000090AB0F9021000EE101AB8EEC00A554930
:104C9000D1ED0A0A30EEC00A524981ED0A0AB0F994
:104CA000041000EE101AB8EEC00A4E49D1ED0B0AFE
:104CB00030EEC00A4B4981ED0B0A704770B5040015
:104CC0000D004848474989688847002855D000208A
:104CD00003280FDA434911EB4001B1F9121000EE3D
:104CE000101AB8EEC00A3F4911EB800181ED090AA4
:104CF000401CEDE73A480088002814D00026032E17
:104D000011DA384810EB860090ED090A3648242164
:104D100001FB060004F02AF8324810EB860080ED13
:104D2000090A761CEBE7FFF71DFF002802D12800D7
:104D3000FFF734FF2F480068FFF795FF2E48006803
:104D4000401C2D4908600020032812DA2B4911EB82
:104D5000800191ED000A234911EB8001D1ED090A90
:104D600030EE200A254911EB800181ED000A401C3C
:104D7000EAE701201B4981F8300070BD01001E48A0
:104D8000006800281DD00020032815DA1A4A92ED89
:104D9000000AB8EE400A194A12EB8002D2ED000A6E
:104DA00080EE800A11EB800282ED000A134A002394
:104DB00042F82030401CE7E700200F4A1060012035
:104DC00008E00020032804DA002241F82020401CDB
:104DD000F8E700207047000002980020949400201B
:104DE000F8970020E8900020588E0020FA970020C5
:104DF0003095002000040020F89500202495002024
:104E0000F0B400220023002400252A00102A4AD2F0
:104E1000012595402B000D681D402C009C4240D17F
:104E2000056803261700FFB27F00BE40B54305604A
:104E300005680E791700FFB27F00BE40354305605C
:104E40000D79012D02D00D79022D1AD18568032626
:104E50001700FFB27F00BE40B543856085684E797C
:104E60001700FFB27F00BE403543856045680126CC
:104E70009640B543456045688E799640B6B2354355
:104E80004560C56803261700FFB27F00BE40B543EA
:104E9000C560C568CE791700FFB27F00BE403543BC
:104EA000C560521CB2E7F0BC7047020000201369D5
:104EB00089B20B4202D00123180001E00023180040
:104EC000C0B270470183704741837047426989B21D
:104ED0004A4042617047F0B400230024D2B211F07E
:104EE0000705EDB2AD0012FA05F52B0089B2CD1021
:104EF00010EB850589B2CE1010EB8606366A0F27B7
:104F000011F0070C5FFA8CFC5FEA8C0C17FA0CF7B7
:104F1000BE432E6289B2CD1010EB85052D6A1D436C
:104F20002C0089B2CD1010EB85052C62F0BC7047C7
:104F3000F0B4002100220023022400250226DFF81D
:104F40008C713F6817F00C0739000F00002F04D058
:104F5000042F06D0082F08D03CE0DFF878710760F6
:104F60003BE0DFF87471076037E0DFF864713F6899
:104F7000C7F380573D00DFF858713F6817F03F07CF
:104F80003E00002D0DD0DFF85071B7FBF6F7DFF8CB
:104F900040C1DCF800C0CCF3881C0CFB07F73B00D9
:104FA0000CE0DFF83071B7FBF6F7DFF824C1DCF86E
:104FB00000C0CCF3881C0CFB07F73B00DFF8107136
:104FC0003F68C7F301477F1C7F003C00B3FBF4F749
:104FD000076002E0DFF8FC700760DFF8F0703F6800
:104FE00017F0F00739000909DFF8F070CF5D3A00DB
:104FF0000768D7404760DFF8D4703F6817F4E05780
:105000003900890ADFF8D470CF5D3A004768D7408D
:105010008760DFF8B8703F6817F460473900490BC4
:10502000DFF8B870CF5D3A004768D740C760F0BC82
:105030007047C9B2002907D0DFF8A42012680243E4
:10504000DFF89C301A6004E0254A12688243244B42
:105050001A607047C9B2002905D0224A126802437B
:10506000204B1A6004E01F4A126882431D4B1A60ED
:105070007047C9B2002905D01B4A126802431A4B77
:105080001A6004E0184A12688243174B1A6070478E
:10509000C9B2002905D0154A12680243134B1A60A1
:1050A00004E0124A12688243104B1A607047C9B27A
:1050B000002905D00E4A126802430D4B1A6004E025
:1050C0000B4A126882430A4B1A6070470838024044
:1050D000043802400024F40000127A00DC030020AF
:1050E0003038024040380240443802402038024004
:1050F0002438024028490143284A1160704770B49F
:10510000002300210F22C478002C21D0234C2468D6
:1051100014F4E064D4F5E064240A2300D3F1040419
:105120002100D2B21A4144788C4023008478144084
:1051300023431B011A4C05782B550124057815F0E3
:105140001F05AC40174D0678761145F8264009E05A
:105150000124057815F01F05AC40134D0678761133
:1051600045F8264070BC7047104A0A400243104B75
:105170001A607047042806D10E49096851F00401ED
:105180000C4A116005E00B49096831F00401094A35
:1051900011607047000000000000FA050CED00E00F
:1051A00000E400E000E100E080E100E080FFFF1F9C
:1051B00008ED00E010E000E010B503F0F9FD040098
:1051C0001A480078401C19490870164800680028E1
:1051D00002D0144800688047200003F0EDFD10BDA8
:1051E00010B503F0E5FD040010480078401E0F499B
:1051F00008700D480068002802D00B4800688047FE
:10520000200003F0D9FD10BD38B503F0D1FD050035
:10521000064800780400280003F0CEFD2000C0B24C
:1052200032BD00009496002098960020119800202E
:105230000F480068704710B50D480068401C0C49C5
:10524000086000F059FF0400A06C401EA064A06C30
:10525000002809D1606CA06494F8340050F0080074
:1052600084F8340000F0BBFF03F0F0FF10BD000035
:10527000049600200100002903D55FF0FF321000E2
:1052800017E04FF47A7291FBF2F24FF47A735A43BB
:1052900010004FF47A7291FBF2F302FB13124FF4F9
:1052A0007A735A4302F2E7324FF47A7392FBF3F2C5
:1052B0001018704770B50400DFF8A4050068844238
:1052C00006D2A122DFF89C15DFF89C05FFF7C3F892
:1052D000DFF898050068844206D3A222DFF884151F
:1052E000DFF88C05FFF7B7F86088002806D0A32206
:1052F000DFF87015DFF87C05FFF7ADF8DFF8600523
:105300000068616808180500AC421BD06888002856
:1053100018D1DFF858050068854213D0DFF858052A
:105320000068A84202D1DFF8500504606868606038
:10533000DFF82C050068201ADFF8241509686A6870
:1053400051188860DFF818050068A1680818060081
:10535000A64216D07088002813D1DFF81C0500681B
:10536000A04202D1DFF81005066060687060DFF8C7
:10537000F0040068301ADFF8E81409686268511810
:10538000886070BD2DE9F84304000D00E01C87081B
:10539000BF005FEA95085FEA880803F009FD8146CF
:1053A000FFF732FF00280BD0DFF8D014DFF8D0046D
:1053B000FFF721F8D222DFF8C41430A0FFF74BF832
:1053C000484603F0F9FCB8F1190F4ED3B8F11800B4
:1053D000B8424AD3B8EB07001838DFF8A8140860C1
:1053E000DFF87C040760DFF87804006806004FF4FB
:1053F000F5503080DFF88C0400680C3070600020BD
:10540000B06000207080DFF85804006871680818E8
:10541000DFF8581408604FF4F550DFF850140968AD
:1054200008800120DFF8441409684880DFF854043C
:1054300000680C30DFF8341409684860DFF8440471
:1054400000680C30DFF8241409688860002301220A
:10545000DFF83414DFF8340403F0C5FFDFF800048C
:105460000068DFF81414086005E02A002100DFF866
:105470002004FEF7C0FFBDE8F1830000300000000B
:105480002DE9F8438046B8F1000F01D100202FE14B
:1054900003F08EFC8146FFF7B7FE00280CD0DFF842
:1054A000F413DFF8DC03FEF7A6FF4FF48C72DFF88D
:1054B000E41390A0FEF7CFFF484603F07DFC18F1FF
:1054C0000300800880008045FFD118F103005FEAE7
:1054D00090085FEA8808DFF8AC030068404501D215
:1054E000002005E1B8F10C0F01D20C2080465FF0DE
:1054F000FF31DFF8980303F09AFFDFF87C030068C0
:10550000DFF85C130968401A0400DFF878030068CC
:10551000B0EB0800844280F0E780DFF844030068C5
:10552000201806007088002840F0D9807068001BA1
:105530000C384045C0F0D3807068001B0C3818F15F
:105540001801884238D318EB04000C300500DFF84E
:1055500010030068281807004FF4F5503880002029
:10556000788070687860BC607560012070807868B1
:10557000DFF8101309680C31884205D0DFF8E0022B
:105580000068796808188560DFF80C03006818F176
:105590000C010818DFF800130860DFF8000300684A
:1055A000DFF8F4120968884223D2DFF8EC020068C1
:1055B000DFF8E81208601CE001207080DFF8D802F4
:1055C000006871680818801BDFF8941209680818D1
:1055D000DFF8C4120860DFF8C4020068DFF8B81210
:1055E0000968884205D2DFF8B0020068DFF8AC1223
:1055F00008604FF4F5503080DFF87C020068864286
:105600002FD1DFF8740200684088002813D0DFF83B
:1056100068020068DFF85412096888420BD0DFF88E
:1056200040020068DFF85012096849680818DFF87E
:1056300048120860E5E7DFF840020068DFF82C1246
:10564000096888420DD0DFF83002006840880028E1
:1056500007D04FF4C172DFF83C12DFF84402FEF7C6
:10566000FAFEDFF8280203F079FFDFF80002006895
:1056700018EB06010C31884207D24FF4C372DFF8F1
:105680001412DFF82002FEF7E6FE16F10C000421EA
:10569000B0FBF1F202FB1102002A07D040F28712A0
:1056A000DFF8F011DFF80002FEF7D5FE16F0030078
:1056B000002807D04FF4C472DFF8D811DFF8EC01EE
:1056C000FEF7C9FE64480068002805D0414616F17F
:1056D0000C00614A1268904716F10C0008E060481F
:1056E00000682018446810E7684803F037FF00207E
:1056F000BDE8F2833000000070B504000D0005FB2A
:1057000004F0FFF7BDFE0600002E05D005FB04F2F5
:1057100000213000FEF7F1FA300070BD70B50400D2
:10572000002C00F0838003F043FB0600FFF76CFDC4
:10573000002809D05E495248FEF75DFE40F22F2254
:105740005B493BA0FEF787FE300003F035FB14F009
:105750000300002805D040F2312255495548FEF794
:105760007AFE3F480068844203D340480068844280
:1057700005D340F233224E494F48FEF76CFE3748BE
:105780000068002803D0200034490968884734485D
:105790000068844203D335480068844200D345E062
:1057A000B4F10C0005005FF0FF31384803F03FFE14
:1057B0006888002803D02888B0F5F55F08D03F48F6
:1057C000FEF719FE2B886A8829003D48FEF713FE74
:1057D0006888002805D140F2512235493948FEF742
:1057E0003AFE2888B0F5F55F05D040F252223049E4
:1057F0003548FEF730FE002068804FF4F5502880D1
:105800001D480068854201D21B4805602248006897
:105810006968401A281812490968401A1E49086028
:105820002800FFF747FD194803F098FE70BD0000FF
:105830003000000080B5134801682448FEF7DBFD06
:10584000154801682248FEF7D6FD14480168214832
:10585000FEF7D1FD01BD0000C4960020C8960020CF
:10586000CC960020FC9301087C7C0108D096002097
:1058700078730108988F0108D49600209489010854
:1058800014750108D896002060980108A89200209D
:105890008470010808940108DC960020E09600203E
:1058A0003C750108806F0108A86E01088C72010820
:1058B00068980108BC720108DC460108D47E010822
:1058C000EC72010814940108F07E0108A88901080F
:1058D000BC8901089C7C01080020704700207047AB
:1058E000002070470020704710B51D4804001D4877
:1058F000844203D220688047241DF8E710BD10B50C
:10590000184804001848844203D220688047241DA8
:10591000F8E710BD80B503F07BFE00F02FF8002003
:1059200002BD10B50400FFF7EAFF03F0F5FE10BD5D
:105930001CB5142001900A2000904FF4006300224F
:105940000A490B4800F019FC0400002C04D1C822BD
:1059500008490948FEF77FFD200000F0D1FB13BD88
:10596000BC990108C0990108C89901082359000889
:10597000209801081C890108A88D010880B503F052
:1059800017FAFDF780FFFEF74AFA03F0A4FC00F0D7
:10599000F5FEFFF7CDFF03F0CBFC03F0CEFF00F0E8
:1059A00003FF002002BD000080B501210820FFF7A1
:1059B00040FB01215FF40030FFF74CFB01BD00B557
:1059C00083B002208DF8040002208DF8050000202D
:1059D0008DF8060001208DF807006020009000A9D6
:1059E0002D48FFF70DFA072205212B48FFF773FA20
:1059F000072206212848FFF76EFA07BD80B526204A
:105A00008DF8000000208DF8010000208DF80200C4
:105A100001208DF8030000A8FFF771FB01BD00B560
:105A200085B0FFF7C1FFFFF7CAFFFFF7E7FF1B488D
:105A300003F0C0FF5FF4E13000900020ADF80400F7
:105A40000020ADF806000020ADF808000020ADF8F9
:105A50000C000C20ADF80A0000A9104804F018F85A
:105A60000F4B40F243120F490F4804F0B7FA0122DE
:105A700040F22551094804F0B9F88021074804F0A4
:105A8000EFF805B000BD80B5FFF796FB064804F0BF
:105A9000D9FAFFF7A5FB01BD000C0240004400400D
:105AA000EC03002058990108709000200100FF20AD
:105AB000B1F1006F02D3B1F1016F05D3B04A914249
:105AC00008D3B04A914205D2AF4A914202D3AF4ABD
:105AD000914202D3FF22100043E0AD4A914202D32B
